{
  "_format": "hh-sol-artifact-1",
  "contractName": "StakerApp",
  "sourceName": "contracts/StakerApp.sol",
  "abi": [
    {
      "inputs": [
        {
          "internalType": "contract BubToken",
          "name": "_bubToken",
          "type": "address"
        }
      ],
      "stateMutability": "nonpayable",
      "type": "constructor"
    },
    {
      "anonymous": false,
      "inputs": [
        {
          "indexed": true,
          "internalType": "address",
          "name": "previousOwner",
          "type": "address"
        },
        {
          "indexed": true,
          "internalType": "address",
          "name": "newOwner",
          "type": "address"
        }
      ],
      "name": "OwnershipTransferred",
      "type": "event"
    },
    {
      "inputs": [],
      "name": "buyToken",
      "outputs": [],
      "stateMutability": "payable",
      "type": "function"
    },
    {
      "inputs": [],
      "name": "claimRewards",
      "outputs": [],
      "stateMutability": "nonpayable",
      "type": "function"
    },
    {
      "inputs": [],
      "name": "getAmountStaked",
      "outputs": [
        {
          "internalType": "uint256",
          "name": "",
          "type": "uint256"
        }
      ],
      "stateMutability": "view",
      "type": "function"
    },
    {
      "inputs": [],
      "name": "getTokenBalance",
      "outputs": [
        {
          "internalType": "uint256",
          "name": "",
          "type": "uint256"
        }
      ],
      "stateMutability": "view",
      "type": "function"
    },
    {
      "inputs": [
        {
          "internalType": "address",
          "name": "",
          "type": "address"
        }
      ],
      "name": "hasStaked",
      "outputs": [
        {
          "internalType": "bool",
          "name": "",
          "type": "bool"
        }
      ],
      "stateMutability": "view",
      "type": "function"
    },
    {
      "inputs": [],
      "name": "issueToken",
      "outputs": [],
      "stateMutability": "nonpayable",
      "type": "function"
    },
    {
      "inputs": [
        {
          "internalType": "uint256",
          "name": "newPrice",
          "type": "uint256"
        }
      ],
      "name": "modifyTokenBuyPrice",
      "outputs": [],
      "stateMutability": "nonpayable",
      "type": "function"
    },
    {
      "inputs": [],
      "name": "owner",
      "outputs": [
        {
          "internalType": "address",
          "name": "",
          "type": "address"
        }
      ],
      "stateMutability": "view",
      "type": "function"
    },
    {
      "inputs": [
        {
          "internalType": "uint256",
          "name": "index",
          "type": "uint256"
        }
      ],
      "name": "removeElementfromStakers",
      "outputs": [],
      "stateMutability": "nonpayable",
      "type": "function"
    },
    {
      "inputs": [],
      "name": "renounceOwnership",
      "outputs": [],
      "stateMutability": "nonpayable",
      "type": "function"
    },
    {
      "inputs": [
        {
          "internalType": "uint256",
          "name": "numOfTokens",
          "type": "uint256"
        }
      ],
      "name": "stakeToken",
      "outputs": [],
      "stateMutability": "nonpayable",
      "type": "function"
    },
    {
      "inputs": [
        {
          "internalType": "uint256",
          "name": "",
          "type": "uint256"
        }
      ],
      "name": "stakers",
      "outputs": [
        {
          "internalType": "address",
          "name": "",
          "type": "address"
        }
      ],
      "stateMutability": "view",
      "type": "function"
    },
    {
      "inputs": [
        {
          "internalType": "address",
          "name": "",
          "type": "address"
        }
      ],
      "name": "stakingBalance",
      "outputs": [
        {
          "internalType": "uint256",
          "name": "",
          "type": "uint256"
        }
      ],
      "stateMutability": "view",
      "type": "function"
    },
    {
      "inputs": [],
      "name": "tokenBuyPrice",
      "outputs": [
        {
          "internalType": "uint256",
          "name": "",
          "type": "uint256"
        }
      ],
      "stateMutability": "view",
      "type": "function"
    },
    {
      "inputs": [
        {
          "internalType": "address",
          "name": "newOwner",
          "type": "address"
        }
      ],
      "name": "transferOwnership",
      "outputs": [],
      "stateMutability": "nonpayable",
      "type": "function"
    },
    {
      "inputs": [
        {
          "internalType": "address",
          "name": "to",
          "type": "address"
        },
        {
          "internalType": "uint256",
          "name": "amount",
          "type": "uint256"
        }
      ],
      "name": "transferTokens",
      "outputs": [],
      "stateMutability": "nonpayable",
      "type": "function"
    },
    {
      "inputs": [
        {
          "internalType": "uint256",
          "name": "numOfTokens",
          "type": "uint256"
        }
      ],
      "name": "unstakeToken",
      "outputs": [],
      "stateMutability": "nonpayable",
      "type": "function"
    }
  ],
  "bytecode": "0x608060405260646004553480156200001657600080fd5b50604051620029e7380380620029e783398181016040528101906200003c919062000338565b6200005c620000506200023e60201b60201c565b6200024660201b60201c565b80600260006101000a81548173ffffffffffffffffffffffffffffffffffffffff021916908373ffffffffffffffffffffffffffffffffffffffff16021790555033600160006101000a81548173ffffffffffffffffffffffffffffffffffffffff021916908373ffffffffffffffffffffffffffffffffffffffff1602179055506000600260009054906101000a900473ffffffffffffffffffffffffffffffffffffffff1673ffffffffffffffffffffffffffffffffffffffff166332424aa36040518163ffffffff1660e01b815260040160206040518083038186803b1580156200014957600080fd5b505afa1580156200015e573d6000803e3d6000fd5b505050506040513d601f19601f8201168201806040525081019062000184919062000364565b9050600260009054906101000a900473ffffffffffffffffffffffffffffffffffffffff1673ffffffffffffffffffffffffffffffffffffffff16634e6ec2473383600a620001d491906200043a565b6103e8620001e3919062000577565b6040518363ffffffff1660e01b815260040162000202929190620003b2565b600060405180830381600087803b1580156200021d57600080fd5b505af115801562000232573d6000803e3d6000fd5b505050505050620006a7565b600033905090565b60008060009054906101000a900473ffffffffffffffffffffffffffffffffffffffff169050816000806101000a81548173ffffffffffffffffffffffffffffffffffffffff021916908373ffffffffffffffffffffffffffffffffffffffff1602179055508173ffffffffffffffffffffffffffffffffffffffff168173ffffffffffffffffffffffffffffffffffffffff167f8be0079c531659141344cd1fd0a4f28419497f9722a3daafe3b4186f6b6457e060405160405180910390a35050565b6000815190506200031b8162000673565b92915050565b60008151905062000332816200068d565b92915050565b6000602082840312156200034b57600080fd5b60006200035b848285016200030a565b91505092915050565b6000602082840312156200037757600080fd5b6000620003878482850162000321565b91505092915050565b6200039b81620005d8565b82525050565b620003ac8162000620565b82525050565b6000604082019050620003c9600083018562000390565b620003d86020830184620003a1565b9392505050565b6000808291508390505b6001851115620004315780860481111562000409576200040862000637565b5b6001851615620004195780820291505b8081029050620004298562000666565b9450620003e9565b94509492505050565b6000620004478262000620565b915062000454836200062a565b9250620004837fffffffffffffffffffffffffffffffffffffffffffffffffffffffffffffffff84846200048b565b905092915050565b6000826200049d576001905062000570565b81620004ad576000905062000570565b8160018114620004c65760028114620004d15762000507565b600191505062000570565b60ff841115620004e657620004e562000637565b5b8360020a9150848211156200050057620004ff62000637565b5b5062000570565b5060208310610133831016604e8410600b8410161715620005415782820a9050838111156200053b576200053a62000637565b5b62000570565b620005508484846001620003df565b925090508184048111156200056a576200056962000637565b5b81810290505b9392505050565b6000620005848262000620565b9150620005918362000620565b9250817fffffffffffffffffffffffffffffffffffffffffffffffffffffffffffffffff0483118215151615620005cd57620005cc62000637565b5b828202905092915050565b6000620005e58262000600565b9050919050565b6000620005f982620005d8565b9050919050565b600073ffffffffffffffffffffffffffffffffffffffff82169050919050565b6000819050919050565b600060ff82169050919050565b7f4e487b7100000000000000000000000000000000000000000000000000000000600052601160045260246000fd5b60008160011c9050919050565b6200067e81620005ec565b81146200068a57600080fd5b50565b62000698816200062a565b8114620006a457600080fd5b50565b61233080620006b76000396000f3fe6080604052600436106100fe5760003560e01c8063a482171911610095578063c93c8f3411610064578063c93c8f34146102b4578063cda6b847146102f1578063dbf9f6521461031a578063f2fde38b14610345578063fd5e6dd11461036e576100fe565b8063a48217191461022d578063a9bdbf8914610237578063ba354dc914610262578063bec3fa171461028b576100fe565b806382b2e257116100d157806382b2e25714610197578063834dc984146101c25780638da5cb5b146101eb578063a1ee8c7814610216576100fe565b80632cfb668814610103578063372500ab1461012c57806345bc78ab14610143578063715018a614610180575b600080fd5b34801561010f57600080fd5b5061012a60048036038101906101259190611a65565b6103ab565b005b34801561013857600080fd5b506101416106e1565b005b34801561014f57600080fd5b5061016a600480360381019061016591906119d7565b610806565b6040516101779190611d78565b60405180910390f35b34801561018c57600080fd5b5061019561081e565b005b3480156101a357600080fd5b506101ac6108a6565b6040516101b99190611d78565b60405180910390f35b3480156101ce57600080fd5b506101e960048036038101906101e49190611a65565b610958565b005b3480156101f757600080fd5b506102006109de565b60405161020d9190611c02565b60405180910390f35b34801561022257600080fd5b5061022b610a07565b005b610235610c84565b005b34801561024357600080fd5b5061024c610d2e565b6040516102599190611d78565b60405180910390f35b34801561026e57600080fd5b5061028960048036038101906102849190611a65565b610d75565b005b34801561029757600080fd5b506102b260048036038101906102ad9190611a00565b610f85565b005b3480156102c057600080fd5b506102db60048036038101906102d691906119d7565b6111fd565b6040516102e89190611c7d565b60405180910390f35b3480156102fd57600080fd5b5061031860048036038101906103139190611a65565b61121d565b005b34801561032657600080fd5b5061032f611765565b60405161033c9190611d78565b60405180910390f35b34801561035157600080fd5b5061036c600480360381019061036791906119d7565b61176b565b005b34801561037a57600080fd5b5061039560048036038101906103909190611a65565b611863565b6040516103a29190611c02565b60405180910390f35b6000600260009054906101000a900473ffffffffffffffffffffffffffffffffffffffff1673ffffffffffffffffffffffffffffffffffffffff166332424aa36040518163ffffffff1660e01b815260040160206040518083038186803b15801561041557600080fd5b505afa158015610429573d6000803e3d6000fd5b505050506040513d601f19601f8201168201806040525081019061044d9190611ab7565b9050600081600a61045e9190611e7e565b836104699190611f9c565b9050600560003373ffffffffffffffffffffffffffffffffffffffff1673ffffffffffffffffffffffffffffffffffffffff168152602001908152602001600020548111156104ed576040517f08c379a00000000000000000000000000000000000000000000000000000000081526004016104e490611cb8565b60405180910390fd5b600260009054906101000a900473ffffffffffffffffffffffffffffffffffffffff1673ffffffffffffffffffffffffffffffffffffffff1663a9059cbb33836040518363ffffffff1660e01b815260040161054a929190611c54565b602060405180830381600087803b15801561056457600080fd5b505af1158015610578573d6000803e3d6000fd5b505050506040513d601f19601f8201168201806040525081019061059c9190611a3c565b5080600560003373ffffffffffffffffffffffffffffffffffffffff1673ffffffffffffffffffffffffffffffffffffffff16815260200190815260200160002060008282546105ec9190611ff6565b925050819055506000600560003373ffffffffffffffffffffffffffffffffffffffff1673ffffffffffffffffffffffffffffffffffffffff1681526020019081526020016000205414156106dc57610683600760003373ffffffffffffffffffffffffffffffffffffffff1673ffffffffffffffffffffffffffffffffffffffff16815260200190815260200160002054610d75565b6000600660003373ffffffffffffffffffffffffffffffffffffffff1673ffffffffffffffffffffffffffffffffffffffff16815260200190815260200160002060006101000a81548160ff0219169083151502179055505b505050565b6000600560003373ffffffffffffffffffffffffffffffffffffffff1673ffffffffffffffffffffffffffffffffffffffff1681526020019081526020016000205411610763576040517f08c379a000000000000000000000000000000000000000000000000000000000815260040161075a90611d18565b60405180910390fd5b6064600560003373ffffffffffffffffffffffffffffffffffffffff1673ffffffffffffffffffffffffffffffffffffffff168152602001908152602001600020546107af9190611dfa565b600560003373ffffffffffffffffffffffffffffffffffffffff1673ffffffffffffffffffffffffffffffffffffffff16815260200190815260200160002060008282546107fd9190611da4565b92505081905550565b60056020528060005260406000206000915090505481565b6108266118a2565b73ffffffffffffffffffffffffffffffffffffffff166108446109de565b73ffffffffffffffffffffffffffffffffffffffff161461089a576040517f08c379a000000000000000000000000000000000000000000000000000000000815260040161089190611cf8565b60405180910390fd5b6108a460006118aa565b565b6000600260009054906101000a900473ffffffffffffffffffffffffffffffffffffffff1673ffffffffffffffffffffffffffffffffffffffff166370a08231336040518263ffffffff1660e01b81526004016109039190611c02565b60206040518083038186803b15801561091b57600080fd5b505afa15801561092f573d6000803e3d6000fd5b505050506040513d601f19601f820116820180604052508101906109539190611a8e565b905090565b6109606118a2565b73ffffffffffffffffffffffffffffffffffffffff1661097e6109de565b73ffffffffffffffffffffffffffffffffffffffff16146109d4576040517f08c379a00000000000000000000000000000000000000000000000000000000081526004016109cb90611cf8565b60405180910390fd5b8060048190555050565b60008060009054906101000a900473ffffffffffffffffffffffffffffffffffffffff16905090565b610a0f6118a2565b73ffffffffffffffffffffffffffffffffffffffff16610a2d6109de565b73ffffffffffffffffffffffffffffffffffffffff1614610a83576040517f08c379a0000000000000000000000000000000000000000000000000000000008152600401610a7a90611cf8565b60405180910390fd5b60005b600380549050811015610c8157600260009054906101000a900473ffffffffffffffffffffffffffffffffffffffff1673ffffffffffffffffffffffffffffffffffffffff166323b872dd600160009054906101000a900473ffffffffffffffffffffffffffffffffffffffff1660038481548110610b2e577f4e487b7100000000000000000000000000000000000000000000000000000000600052603260045260246000fd5b9060005260206000200160009054906101000a900473ffffffffffffffffffffffffffffffffffffffff166005600060038781548110610b97577f4e487b7100000000000000000000000000000000000000000000000000000000600052603260045260246000fd5b9060005260206000200160009054906101000a900473ffffffffffffffffffffffffffffffffffffffff1673ffffffffffffffffffffffffffffffffffffffff1673ffffffffffffffffffffffffffffffffffffffff168152602001908152602001600020546040518463ffffffff1660e01b8152600401610c1b93929190611c1d565b602060405180830381600087803b158015610c3557600080fd5b505af1158015610c49573d6000803e3d6000fd5b505050506040513d601f19601f82011682018060405250810190610c6d9190611a3c565b508080610c799061207f565b915050610a86565b50565b6000339050600060045434610c999190611f9c565b9050600260009054906101000a900473ffffffffffffffffffffffffffffffffffffffff1673ffffffffffffffffffffffffffffffffffffffff166368f8fc1083836040518363ffffffff1660e01b8152600401610cf8929190611c54565b600060405180830381600087803b158015610d1257600080fd5b505af1158015610d26573d6000803e3d6000fd5b505050505050565b6000600560003373ffffffffffffffffffffffffffffffffffffffff1673ffffffffffffffffffffffffffffffffffffffff16815260200190815260200160002054905090565b60036001600380549050610d899190611ff6565b81548110610dc0577f4e487b7100000000000000000000000000000000000000000000000000000000600052603260045260246000fd5b9060005260206000200160009054906101000a900473ffffffffffffffffffffffffffffffffffffffff1660038281548110610e25577f4e487b7100000000000000000000000000000000000000000000000000000000600052603260045260246000fd5b9060005260206000200160006101000a81548173ffffffffffffffffffffffffffffffffffffffff021916908373ffffffffffffffffffffffffffffffffffffffff160217905550806007600060038481548110610eac577f4e487b7100000000000000000000000000000000000000000000000000000000600052603260045260246000fd5b9060005260206000200160009054906101000a900473ffffffffffffffffffffffffffffffffffffffff1673ffffffffffffffffffffffffffffffffffffffff1673ffffffffffffffffffffffffffffffffffffffff168152602001908152602001600020819055506003805480610f4d577f4e487b7100000000000000000000000000000000000000000000000000000000600052603160045260246000fd5b6001900381819060005260206000200160006101000a81549073ffffffffffffffffffffffffffffffffffffffff0219169055905550565b6000600260009054906101000a900473ffffffffffffffffffffffffffffffffffffffff1673ffffffffffffffffffffffffffffffffffffffff166332424aa36040518163ffffffff1660e01b815260040160206040518083038186803b158015610fef57600080fd5b505afa158015611003573d6000803e3d6000fd5b505050506040513d601f19601f820116820180604052508101906110279190611ab7565b9050600081600a6110389190611e7e565b836110439190611f9c565b9050600061104f6108a6565b905080821115611094576040517f08c379a000000000000000000000000000000000000000000000000000000000815260040161108b90611cd8565b60405180910390fd5b600260009054906101000a900473ffffffffffffffffffffffffffffffffffffffff1673ffffffffffffffffffffffffffffffffffffffff1663095ea7b333846040518363ffffffff1660e01b81526004016110f1929190611c54565b602060405180830381600087803b15801561110b57600080fd5b505af115801561111f573d6000803e3d6000fd5b505050506040513d601f19601f820116820180604052508101906111439190611a3c565b50600260009054906101000a900473ffffffffffffffffffffffffffffffffffffffff1673ffffffffffffffffffffffffffffffffffffffff166323b872dd3387856040518463ffffffff1660e01b81526004016111a393929190611c1d565b602060405180830381600087803b1580156111bd57600080fd5b505af11580156111d1573d6000803e3d6000fd5b505050506040513d601f19601f820116820180604052508101906111f59190611a3c565b505050505050565b60066020528060005260406000206000915054906101000a900460ff1681565b60008111611260576040517f08c379a000000000000000000000000000000000000000000000000000000000815260040161125790611d58565b60405180910390fd5b6000600260009054906101000a900473ffffffffffffffffffffffffffffffffffffffff1673ffffffffffffffffffffffffffffffffffffffff166332424aa36040518163ffffffff1660e01b815260040160206040518083038186803b1580156112ca57600080fd5b505afa1580156112de573d6000803e3d6000fd5b505050506040513d601f19601f820116820180604052508101906113029190611ab7565b9050600081600a6113139190611e7e565b8361131e9190611f9c565b9050600260009054906101000a900473ffffffffffffffffffffffffffffffffffffffff1673ffffffffffffffffffffffffffffffffffffffff166370a08231336040518263ffffffff1660e01b815260040161137b9190611c02565b60206040518083038186803b15801561139357600080fd5b505afa1580156113a7573d6000803e3d6000fd5b505050506040513d601f19601f820116820180604052508101906113cb9190611a8e565b81111561140d576040517f08c379a000000000000000000000000000000000000000000000000000000000815260040161140490611d38565b60405180910390fd5b600260009054906101000a900473ffffffffffffffffffffffffffffffffffffffff1673ffffffffffffffffffffffffffffffffffffffff1663095ea7b33384600a6114599190611e7e565b866114649190611f9c565b6040518363ffffffff1660e01b8152600401611481929190611c54565b602060405180830381600087803b15801561149b57600080fd5b505af11580156114af573d6000803e3d6000fd5b505050506040513d601f19601f820116820180604052508101906114d39190611a3c565b50600260009054906101000a900473ffffffffffffffffffffffffffffffffffffffff1673ffffffffffffffffffffffffffffffffffffffff166323b872dd333085600a6115219190611e7e565b8761152c9190611f9c565b6040518463ffffffff1660e01b815260040161154a93929190611c1d565b602060405180830381600087803b15801561156457600080fd5b505af1158015611578573d6000803e3d6000fd5b505050506040513d601f19601f8201168201806040525081019061159c9190611a3c565b5081600a6115aa9190611e7e565b836115b59190611f9c565b600560003373ffffffffffffffffffffffffffffffffffffffff1673ffffffffffffffffffffffffffffffffffffffff16815260200190815260200160002060008282546116039190611da4565b92505081905550600660003373ffffffffffffffffffffffffffffffffffffffff1673ffffffffffffffffffffffffffffffffffffffff16815260200190815260200160002060009054906101000a900460ff1661176057600380549050600760003373ffffffffffffffffffffffffffffffffffffffff1673ffffffffffffffffffffffffffffffffffffffff168152602001908152602001600020819055506003339080600181540180825580915050600190039060005260206000200160009091909190916101000a81548173ffffffffffffffffffffffffffffffffffffffff021916908373ffffffffffffffffffffffffffffffffffffffff1602179055506001600660003373ffffffffffffffffffffffffffffffffffffffff1673ffffffffffffffffffffffffffffffffffffffff16815260200190815260200160002060006101000a81548160ff0219169083151502179055505b505050565b60045481565b6117736118a2565b73ffffffffffffffffffffffffffffffffffffffff166117916109de565b73ffffffffffffffffffffffffffffffffffffffff16146117e7576040517f08c379a00000000000000000000000000000000000000000000000000000000081526004016117de90611cf8565b60405180910390fd5b600073ffffffffffffffffffffffffffffffffffffffff168173ffffffffffffffffffffffffffffffffffffffff161415611857576040517f08c379a000000000000000000000000000000000000000000000000000000000815260040161184e90611c98565b60405180910390fd5b611860816118aa565b50565b6003818154811061187357600080fd5b906000526020600020016000915054906101000a900473ffffffffffffffffffffffffffffffffffffffff1681565b600033905090565b60008060009054906101000a900473ffffffffffffffffffffffffffffffffffffffff169050816000806101000a81548173ffffffffffffffffffffffffffffffffffffffff021916908373ffffffffffffffffffffffffffffffffffffffff1602179055508173ffffffffffffffffffffffffffffffffffffffff168173ffffffffffffffffffffffffffffffffffffffff167f8be0079c531659141344cd1fd0a4f28419497f9722a3daafe3b4186f6b6457e060405160405180910390a35050565b60008135905061197d8161229e565b92915050565b600081519050611992816122b5565b92915050565b6000813590506119a7816122cc565b92915050565b6000815190506119bc816122cc565b92915050565b6000815190506119d1816122e3565b92915050565b6000602082840312156119e957600080fd5b60006119f78482850161196e565b91505092915050565b60008060408385031215611a1357600080fd5b6000611a218582860161196e565b9250506020611a3285828601611998565b9150509250929050565b600060208284031215611a4e57600080fd5b6000611a5c84828501611983565b91505092915050565b600060208284031215611a7757600080fd5b6000611a8584828501611998565b91505092915050565b600060208284031215611aa057600080fd5b6000611aae848285016119ad565b91505092915050565b600060208284031215611ac957600080fd5b6000611ad7848285016119c2565b91505092915050565b611ae98161202a565b82525050565b611af88161203c565b82525050565b6000611b0b602683611d93565b9150611b1682612133565b604082019050919050565b6000611b2e602c83611d93565b9150611b3982612182565b604082019050919050565b6000611b51602083611d93565b9150611b5c826121d1565b602082019050919050565b6000611b74602083611d93565b9150611b7f826121fa565b602082019050919050565b6000611b97601b83611d93565b9150611ba282612223565b602082019050919050565b6000611bba601183611d93565b9150611bc58261224c565b602082019050919050565b6000611bdd601b83611d93565b9150611be882612275565b602082019050919050565b611bfc81612068565b82525050565b6000602082019050611c176000830184611ae0565b92915050565b6000606082019050611c326000830186611ae0565b611c3f6020830185611ae0565b611c4c6040830184611bf3565b949350505050565b6000604082019050611c696000830185611ae0565b611c766020830184611bf3565b9392505050565b6000602082019050611c926000830184611aef565b92915050565b60006020820190508181036000830152611cb181611afe565b9050919050565b60006020820190508181036000830152611cd181611b21565b9050919050565b60006020820190508181036000830152611cf181611b44565b9050919050565b60006020820190508181036000830152611d1181611b67565b9050919050565b60006020820190508181036000830152611d3181611b8a565b9050919050565b60006020820190508181036000830152611d5181611bad565b9050919050565b60006020820190508181036000830152611d7181611bd0565b9050919050565b6000602082019050611d8d6000830184611bf3565b92915050565b600082825260208201905092915050565b6000611daf82612068565b9150611dba83612068565b9250827fffffffffffffffffffffffffffffffffffffffffffffffffffffffffffffffff03821115611def57611dee6120c8565b5b828201905092915050565b6000611e0582612068565b9150611e1083612068565b925082611e2057611e1f6120f7565b5b828204905092915050565b6000808291508390505b6001851115611e7557808604811115611e5157611e506120c8565b5b6001851615611e605780820291505b8081029050611e6e85612126565b9450611e35565b94509492505050565b6000611e8982612068565b9150611e9483612072565b9250611ec17fffffffffffffffffffffffffffffffffffffffffffffffffffffffffffffffff8484611ec9565b905092915050565b600082611ed95760019050611f95565b81611ee75760009050611f95565b8160018114611efd5760028114611f0757611f36565b6001915050611f95565b60ff841115611f1957611f186120c8565b5b8360020a915084821115611f3057611f2f6120c8565b5b50611f95565b5060208310610133831016604e8410600b8410161715611f6b5782820a905083811115611f6657611f656120c8565b5b611f95565b611f788484846001611e2b565b92509050818404811115611f8f57611f8e6120c8565b5b81810290505b9392505050565b6000611fa782612068565b9150611fb283612068565b9250817fffffffffffffffffffffffffffffffffffffffffffffffffffffffffffffffff0483118215151615611feb57611fea6120c8565b5b828202905092915050565b600061200182612068565b915061200c83612068565b92508282101561201f5761201e6120c8565b5b828203905092915050565b600061203582612048565b9050919050565b60008115159050919050565b600073ffffffffffffffffffffffffffffffffffffffff82169050919050565b6000819050919050565b600060ff82169050919050565b600061208a82612068565b91507fffffffffffffffffffffffffffffffffffffffffffffffffffffffffffffffff8214156120bd576120bc6120c8565b5b600182019050919050565b7f4e487b7100000000000000000000000000000000000000000000000000000000600052601160045260246000fd5b7f4e487b7100000000000000000000000000000000000000000000000000000000600052601260045260246000fd5b60008160011c9050919050565b7f4f776e61626c653a206e6577206f776e657220697320746865207a65726f206160008201527f6464726573730000000000000000000000000000000000000000000000000000602082015250565b7f596f7520686176656e2774207374616b656420757020746f207468697320616d60008201527f6f756e74206265666f72652e0000000000000000000000000000000000000000602082015250565b7f596f7520646f6e277420686176652073756666696369656e7420746f6b656e73600082015250565b7f4f776e61626c653a2063616c6c6572206973206e6f7420746865206f776e6572600082015250565b7f596f7520646f6e2774206861766520746f6b656e207374616b65640000000000600082015250565b7f4e6f7420656e6f75676820746f6b656e73000000000000000000000000000000600082015250565b7f537570706c792076616c7565206c657373207468616e207a65726f0000000000600082015250565b6122a78161202a565b81146122b257600080fd5b50565b6122be8161203c565b81146122c957600080fd5b50565b6122d581612068565b81146122e057600080fd5b50565b6122ec81612072565b81146122f757600080fd5b5056fea26469706673582212200b8e25eec26a1cc27eb8715ae27bd48ba2b85f09c4def96a09aa1746c13cb39c64736f6c63430008040033",
  "linkReferences": {},
  "deployedLinkReferences": {}
}