{
  "_format": "hh-sol-artifact-1",
  "contractName": "StakerApp",
  "sourceName": "contracts/StakerApp.sol",
  "abi": [
    {
      "inputs": [
        {
          "internalType": "contract BubToken",
          "name": "_bubToken",
          "type": "address"
        }
      ],
      "stateMutability": "nonpayable",
      "type": "constructor"
    },
    {
      "anonymous": false,
      "inputs": [
        {
          "indexed": true,
          "internalType": "address",
          "name": "previousOwner",
          "type": "address"
        },
        {
          "indexed": true,
          "internalType": "address",
          "name": "newOwner",
          "type": "address"
        }
      ],
      "name": "OwnershipTransferred",
      "type": "event"
    },
    {
      "inputs": [],
      "name": "buyToken",
      "outputs": [],
      "stateMutability": "payable",
      "type": "function"
    },
    {
      "inputs": [],
      "name": "claimRewards",
      "outputs": [],
      "stateMutability": "nonpayable",
      "type": "function"
    },
    {
      "inputs": [],
      "name": "getAmountStaked",
      "outputs": [
        {
          "internalType": "uint256",
          "name": "",
          "type": "uint256"
        }
      ],
      "stateMutability": "view",
      "type": "function"
    },
    {
      "inputs": [],
      "name": "getTokenBalance",
      "outputs": [
        {
          "internalType": "uint256",
          "name": "",
          "type": "uint256"
        }
      ],
      "stateMutability": "view",
      "type": "function"
    },
    {
      "inputs": [
        {
          "internalType": "address",
          "name": "",
          "type": "address"
        }
      ],
      "name": "hasStaked",
      "outputs": [
        {
          "internalType": "bool",
          "name": "",
          "type": "bool"
        }
      ],
      "stateMutability": "view",
      "type": "function"
    },
    {
      "inputs": [],
      "name": "issueToken",
      "outputs": [],
      "stateMutability": "nonpayable",
      "type": "function"
    },
    {
      "inputs": [
        {
          "internalType": "uint256",
          "name": "newPrice",
          "type": "uint256"
        }
      ],
      "name": "modifyTokenBuyPrice",
      "outputs": [],
      "stateMutability": "nonpayable",
      "type": "function"
    },
    {
      "inputs": [],
      "name": "owner",
      "outputs": [
        {
          "internalType": "address",
          "name": "",
          "type": "address"
        }
      ],
      "stateMutability": "view",
      "type": "function"
    },
    {
      "inputs": [
        {
          "internalType": "uint256",
          "name": "index",
          "type": "uint256"
        }
      ],
      "name": "removeElementfromStakers",
      "outputs": [],
      "stateMutability": "nonpayable",
      "type": "function"
    },
    {
      "inputs": [],
      "name": "renounceOwnership",
      "outputs": [],
      "stateMutability": "nonpayable",
      "type": "function"
    },
    {
      "inputs": [
        {
          "internalType": "uint256",
          "name": "numOfTokens",
          "type": "uint256"
        }
      ],
      "name": "stakeToken",
      "outputs": [],
      "stateMutability": "nonpayable",
      "type": "function"
    },
    {
      "inputs": [
        {
          "internalType": "uint256",
          "name": "",
          "type": "uint256"
        }
      ],
      "name": "stakers",
      "outputs": [
        {
          "internalType": "address",
          "name": "",
          "type": "address"
        }
      ],
      "stateMutability": "view",
      "type": "function"
    },
    {
      "inputs": [
        {
          "internalType": "address",
          "name": "",
          "type": "address"
        }
      ],
      "name": "stakingBalance",
      "outputs": [
        {
          "internalType": "uint256",
          "name": "",
          "type": "uint256"
        }
      ],
      "stateMutability": "view",
      "type": "function"
    },
    {
      "inputs": [],
      "name": "tokenBuyPrice",
      "outputs": [
        {
          "internalType": "uint256",
          "name": "",
          "type": "uint256"
        }
      ],
      "stateMutability": "view",
      "type": "function"
    },
    {
      "inputs": [
        {
          "internalType": "address",
          "name": "newOwner",
          "type": "address"
        }
      ],
      "name": "transferOwnership",
      "outputs": [],
      "stateMutability": "nonpayable",
      "type": "function"
    },
    {
      "inputs": [
        {
          "internalType": "address",
          "name": "to",
          "type": "address"
        },
        {
          "internalType": "uint256",
          "name": "amount",
          "type": "uint256"
        }
      ],
      "name": "transferTokens",
      "outputs": [],
      "stateMutability": "nonpayable",
      "type": "function"
    },
    {
      "inputs": [
        {
          "internalType": "uint256",
          "name": "numOfTokens",
          "type": "uint256"
        }
      ],
      "name": "unstakeToken",
      "outputs": [],
      "stateMutability": "nonpayable",
      "type": "function"
    }
  ],
  "bytecode": "0x608060405260646004553480156200001657600080fd5b506040516200241a3803806200241a83398181016040528101906200003c919062000338565b6200005c620000506200023e60201b60201c565b6200024660201b60201c565b80600260006101000a81548173ffffffffffffffffffffffffffffffffffffffff021916908373ffffffffffffffffffffffffffffffffffffffff16021790555033600160006101000a81548173ffffffffffffffffffffffffffffffffffffffff021916908373ffffffffffffffffffffffffffffffffffffffff1602179055506000600260009054906101000a900473ffffffffffffffffffffffffffffffffffffffff1673ffffffffffffffffffffffffffffffffffffffff166332424aa36040518163ffffffff1660e01b815260040160206040518083038186803b1580156200014957600080fd5b505afa1580156200015e573d6000803e3d6000fd5b505050506040513d601f19601f8201168201806040525081019062000184919062000364565b9050600260009054906101000a900473ffffffffffffffffffffffffffffffffffffffff1673ffffffffffffffffffffffffffffffffffffffff16634e6ec2473383600a620001d491906200043a565b6103e8620001e3919062000577565b6040518363ffffffff1660e01b815260040162000202929190620003b2565b600060405180830381600087803b1580156200021d57600080fd5b505af115801562000232573d6000803e3d6000fd5b505050505050620006a7565b600033905090565b60008060009054906101000a900473ffffffffffffffffffffffffffffffffffffffff169050816000806101000a81548173ffffffffffffffffffffffffffffffffffffffff021916908373ffffffffffffffffffffffffffffffffffffffff1602179055508173ffffffffffffffffffffffffffffffffffffffff168173ffffffffffffffffffffffffffffffffffffffff167f8be0079c531659141344cd1fd0a4f28419497f9722a3daafe3b4186f6b6457e060405160405180910390a35050565b6000815190506200031b8162000673565b92915050565b60008151905062000332816200068d565b92915050565b6000602082840312156200034b57600080fd5b60006200035b848285016200030a565b91505092915050565b6000602082840312156200037757600080fd5b6000620003878482850162000321565b91505092915050565b6200039b81620005d8565b82525050565b620003ac8162000620565b82525050565b6000604082019050620003c9600083018562000390565b620003d86020830184620003a1565b9392505050565b6000808291508390505b6001851115620004315780860481111562000409576200040862000637565b5b6001851615620004195780820291505b8081029050620004298562000666565b9450620003e9565b94509492505050565b6000620004478262000620565b915062000454836200062a565b9250620004837fffffffffffffffffffffffffffffffffffffffffffffffffffffffffffffffff84846200048b565b905092915050565b6000826200049d576001905062000570565b81620004ad576000905062000570565b8160018114620004c65760028114620004d15762000507565b600191505062000570565b60ff841115620004e657620004e562000637565b5b8360020a9150848211156200050057620004ff62000637565b5b5062000570565b5060208310610133831016604e8410600b8410161715620005415782820a9050838111156200053b576200053a62000637565b5b62000570565b620005508484846001620003df565b925090508184048111156200056a576200056962000637565b5b81810290505b9392505050565b6000620005848262000620565b9150620005918362000620565b9250817fffffffffffffffffffffffffffffffffffffffffffffffffffffffffffffffff0483118215151615620005cd57620005cc62000637565b5b828202905092915050565b6000620005e58262000600565b9050919050565b6000620005f982620005d8565b9050919050565b600073ffffffffffffffffffffffffffffffffffffffff82169050919050565b6000819050919050565b600060ff82169050919050565b7f4e487b7100000000000000000000000000000000000000000000000000000000600052601160045260246000fd5b60008160011c9050919050565b6200067e81620005ec565b81146200068a57600080fd5b50565b62000698816200062a565b8114620006a457600080fd5b50565b611d6380620006b76000396000f3fe6080604052600436106100fe5760003560e01c8063a482171911610095578063c93c8f3411610064578063c93c8f34146102b4578063cda6b847146102f1578063dbf9f6521461031a578063f2fde38b14610345578063fd5e6dd11461036e576100fe565b8063a48217191461022d578063a9bdbf8914610237578063ba354dc914610262578063bec3fa171461028b576100fe565b806382b2e257116100d157806382b2e25714610197578063834dc984146101c25780638da5cb5b146101eb578063a1ee8c7814610216576100fe565b80632cfb668814610103578063372500ab1461012c57806345bc78ab14610143578063715018a614610180575b600080fd5b34801561010f57600080fd5b5061012a60048036038101906101259190611663565b6103ab565b005b34801561013857600080fd5b5061014161061f565b005b34801561014f57600080fd5b5061016a600480360381019061016591906115d5565b610744565b604051610177919061194d565b60405180910390f35b34801561018c57600080fd5b5061019561075c565b005b3480156101a357600080fd5b506101ac6107e4565b6040516101b9919061194d565b60405180910390f35b3480156101ce57600080fd5b506101e960048036038101906101e49190611663565b610896565b005b3480156101f757600080fd5b5061020061091c565b60405161020d91906117d7565b60405180910390f35b34801561022257600080fd5b5061022b610945565b005b610235610bc2565b005b34801561024357600080fd5b5061024c610c6c565b604051610259919061194d565b60405180910390f35b34801561026e57600080fd5b5061028960048036038101906102849190611663565b610cb3565b005b34801561029757600080fd5b506102b260048036038101906102ad91906115fe565b610ec3565b005b3480156102c057600080fd5b506102db60048036038101906102d691906115d5565b610fc7565b6040516102e89190611852565b60405180910390f35b3480156102fd57600080fd5b5061031860048036038101906103139190611663565b610fe7565b005b34801561032657600080fd5b5061032f611378565b60405161033c919061194d565b60405180910390f35b34801561035157600080fd5b5061036c600480360381019061036791906115d5565b61137e565b005b34801561037a57600080fd5b5061039560048036038101906103909190611663565b611476565b6040516103a291906117d7565b60405180910390f35b600560003373ffffffffffffffffffffffffffffffffffffffff1673ffffffffffffffffffffffffffffffffffffffff1681526020019081526020016000205481111561042d576040517f08c379a00000000000000000000000000000000000000000000000000000000081526004016104249061188d565b60405180910390fd5b600260009054906101000a900473ffffffffffffffffffffffffffffffffffffffff1673ffffffffffffffffffffffffffffffffffffffff1663a9059cbb33836040518363ffffffff1660e01b815260040161048a929190611829565b602060405180830381600087803b1580156104a457600080fd5b505af11580156104b8573d6000803e3d6000fd5b505050506040513d601f19601f820116820180604052508101906104dc919061163a565b5080600560003373ffffffffffffffffffffffffffffffffffffffff1673ffffffffffffffffffffffffffffffffffffffff168152602001908152602001600020600082825461052c9190611a5a565b925050819055506000600560003373ffffffffffffffffffffffffffffffffffffffff1673ffffffffffffffffffffffffffffffffffffffff16815260200190815260200160002054141561061c576105c3600760003373ffffffffffffffffffffffffffffffffffffffff1673ffffffffffffffffffffffffffffffffffffffff16815260200190815260200160002054610cb3565b6000600660003373ffffffffffffffffffffffffffffffffffffffff1673ffffffffffffffffffffffffffffffffffffffff16815260200190815260200160002060006101000a81548160ff0219169083151502179055505b50565b6000600560003373ffffffffffffffffffffffffffffffffffffffff1673ffffffffffffffffffffffffffffffffffffffff16815260200190815260200160002054116106a1576040517f08c379a00000000000000000000000000000000000000000000000000000000081526004016106989061190d565b60405180910390fd5b6064600560003373ffffffffffffffffffffffffffffffffffffffff1673ffffffffffffffffffffffffffffffffffffffff168152602001908152602001600020546106ed91906119cf565b600560003373ffffffffffffffffffffffffffffffffffffffff1673ffffffffffffffffffffffffffffffffffffffff168152602001908152602001600020600082825461073b9190611979565b92505081905550565b60056020528060005260406000206000915090505481565b6107646114b5565b73ffffffffffffffffffffffffffffffffffffffff1661078261091c565b73ffffffffffffffffffffffffffffffffffffffff16146107d8576040517f08c379a00000000000000000000000000000000000000000000000000000000081526004016107cf906118ed565b60405180910390fd5b6107e260006114bd565b565b6000600260009054906101000a900473ffffffffffffffffffffffffffffffffffffffff1673ffffffffffffffffffffffffffffffffffffffff166370a08231336040518263ffffffff1660e01b815260040161084191906117d7565b60206040518083038186803b15801561085957600080fd5b505afa15801561086d573d6000803e3d6000fd5b505050506040513d601f19601f82011682018060405250810190610891919061168c565b905090565b61089e6114b5565b73ffffffffffffffffffffffffffffffffffffffff166108bc61091c565b73ffffffffffffffffffffffffffffffffffffffff1614610912576040517f08c379a0000000000000000000000000000000000000000000000000000000008152600401610909906118ed565b60405180910390fd5b8060048190555050565b60008060009054906101000a900473ffffffffffffffffffffffffffffffffffffffff16905090565b61094d6114b5565b73ffffffffffffffffffffffffffffffffffffffff1661096b61091c565b73ffffffffffffffffffffffffffffffffffffffff16146109c1576040517f08c379a00000000000000000000000000000000000000000000000000000000081526004016109b8906118ed565b60405180910390fd5b60005b600380549050811015610bbf57600260009054906101000a900473ffffffffffffffffffffffffffffffffffffffff1673ffffffffffffffffffffffffffffffffffffffff166323b872dd600160009054906101000a900473ffffffffffffffffffffffffffffffffffffffff1660038481548110610a6c577f4e487b7100000000000000000000000000000000000000000000000000000000600052603260045260246000fd5b9060005260206000200160009054906101000a900473ffffffffffffffffffffffffffffffffffffffff166005600060038781548110610ad5577f4e487b7100000000000000000000000000000000000000000000000000000000600052603260045260246000fd5b9060005260206000200160009054906101000a900473ffffffffffffffffffffffffffffffffffffffff1673ffffffffffffffffffffffffffffffffffffffff1673ffffffffffffffffffffffffffffffffffffffff168152602001908152602001600020546040518463ffffffff1660e01b8152600401610b59939291906117f2565b602060405180830381600087803b158015610b7357600080fd5b505af1158015610b87573d6000803e3d6000fd5b505050506040513d601f19601f82011682018060405250810190610bab919061163a565b508080610bb790611ad6565b9150506109c4565b50565b6000339050600060045434610bd79190611a00565b9050600260009054906101000a900473ffffffffffffffffffffffffffffffffffffffff1673ffffffffffffffffffffffffffffffffffffffff166368f8fc1083836040518363ffffffff1660e01b8152600401610c36929190611829565b600060405180830381600087803b158015610c5057600080fd5b505af1158015610c64573d6000803e3d6000fd5b505050505050565b6000600560003373ffffffffffffffffffffffffffffffffffffffff1673ffffffffffffffffffffffffffffffffffffffff16815260200190815260200160002054905090565b60036001600380549050610cc79190611a5a565b81548110610cfe577f4e487b7100000000000000000000000000000000000000000000000000000000600052603260045260246000fd5b9060005260206000200160009054906101000a900473ffffffffffffffffffffffffffffffffffffffff1660038281548110610d63577f4e487b7100000000000000000000000000000000000000000000000000000000600052603260045260246000fd5b9060005260206000200160006101000a81548173ffffffffffffffffffffffffffffffffffffffff021916908373ffffffffffffffffffffffffffffffffffffffff160217905550806007600060038481548110610dea577f4e487b7100000000000000000000000000000000000000000000000000000000600052603260045260246000fd5b9060005260206000200160009054906101000a900473ffffffffffffffffffffffffffffffffffffffff1673ffffffffffffffffffffffffffffffffffffffff1673ffffffffffffffffffffffffffffffffffffffff168152602001908152602001600020819055506003805480610e8b577f4e487b7100000000000000000000000000000000000000000000000000000000600052603160045260246000fd5b6001900381819060005260206000200160006101000a81549073ffffffffffffffffffffffffffffffffffffffff0219169055905550565b6000610ecd6107e4565b905080821115610f12576040517f08c379a0000000000000000000000000000000000000000000000000000000008152600401610f09906118cd565b60405180910390fd5b600260009054906101000a900473ffffffffffffffffffffffffffffffffffffffff1673ffffffffffffffffffffffffffffffffffffffff1663a9059cbb84846040518363ffffffff1660e01b8152600401610f6f929190611829565b602060405180830381600087803b158015610f8957600080fd5b505af1158015610f9d573d6000803e3d6000fd5b505050506040513d601f19601f82011682018060405250810190610fc1919061163a565b50505050565b60066020528060005260406000206000915054906101000a900460ff1681565b600260009054906101000a900473ffffffffffffffffffffffffffffffffffffffff1673ffffffffffffffffffffffffffffffffffffffff166370a08231336040518263ffffffff1660e01b815260040161104291906117d7565b60206040518083038186803b15801561105a57600080fd5b505afa15801561106e573d6000803e3d6000fd5b505050506040513d601f19601f82011682018060405250810190611092919061168c565b8111156110d4576040517f08c379a00000000000000000000000000000000000000000000000000000000081526004016110cb9061192d565b60405180910390fd5b60008111611117576040517f08c379a000000000000000000000000000000000000000000000000000000000815260040161110e906118ad565b60405180910390fd5b600260009054906101000a900473ffffffffffffffffffffffffffffffffffffffff1673ffffffffffffffffffffffffffffffffffffffff166323b872dd3330846040518463ffffffff1660e01b8152600401611176939291906117f2565b602060405180830381600087803b15801561119057600080fd5b505af11580156111a4573d6000803e3d6000fd5b505050506040513d601f19601f820116820180604052508101906111c8919061163a565b5080600560003373ffffffffffffffffffffffffffffffffffffffff1673ffffffffffffffffffffffffffffffffffffffff16815260200190815260200160002060008282546112189190611979565b92505081905550600660003373ffffffffffffffffffffffffffffffffffffffff1673ffffffffffffffffffffffffffffffffffffffff16815260200190815260200160002060009054906101000a900460ff1661137557600380549050600760003373ffffffffffffffffffffffffffffffffffffffff1673ffffffffffffffffffffffffffffffffffffffff168152602001908152602001600020819055506003339080600181540180825580915050600190039060005260206000200160009091909190916101000a81548173ffffffffffffffffffffffffffffffffffffffff021916908373ffffffffffffffffffffffffffffffffffffffff1602179055506001600660003373ffffffffffffffffffffffffffffffffffffffff1673ffffffffffffffffffffffffffffffffffffffff16815260200190815260200160002060006101000a81548160ff0219169083151502179055505b50565b60045481565b6113866114b5565b73ffffffffffffffffffffffffffffffffffffffff166113a461091c565b73ffffffffffffffffffffffffffffffffffffffff16146113fa576040517f08c379a00000000000000000000000000000000000000000000000000000000081526004016113f1906118ed565b60405180910390fd5b600073ffffffffffffffffffffffffffffffffffffffff168173ffffffffffffffffffffffffffffffffffffffff16141561146a576040517f08c379a00000000000000000000000000000000000000000000000000000000081526004016114619061186d565b60405180910390fd5b611473816114bd565b50565b6003818154811061148657600080fd5b906000526020600020016000915054906101000a900473ffffffffffffffffffffffffffffffffffffffff1681565b600033905090565b60008060009054906101000a900473ffffffffffffffffffffffffffffffffffffffff169050816000806101000a81548173ffffffffffffffffffffffffffffffffffffffff021916908373ffffffffffffffffffffffffffffffffffffffff1602179055508173ffffffffffffffffffffffffffffffffffffffff168173ffffffffffffffffffffffffffffffffffffffff167f8be0079c531659141344cd1fd0a4f28419497f9722a3daafe3b4186f6b6457e060405160405180910390a35050565b60008135905061159081611ce8565b92915050565b6000815190506115a581611cff565b92915050565b6000813590506115ba81611d16565b92915050565b6000815190506115cf81611d16565b92915050565b6000602082840312156115e757600080fd5b60006115f584828501611581565b91505092915050565b6000806040838503121561161157600080fd5b600061161f85828601611581565b9250506020611630858286016115ab565b9150509250929050565b60006020828403121561164c57600080fd5b600061165a84828501611596565b91505092915050565b60006020828403121561167557600080fd5b6000611683848285016115ab565b91505092915050565b60006020828403121561169e57600080fd5b60006116ac848285016115c0565b91505092915050565b6116be81611a8e565b82525050565b6116cd81611aa0565b82525050565b60006116e0602683611968565b91506116eb82611b7d565b604082019050919050565b6000611703602c83611968565b915061170e82611bcc565b604082019050919050565b6000611726601e83611968565b915061173182611c1b565b602082019050919050565b6000611749602083611968565b915061175482611c44565b602082019050919050565b600061176c602083611968565b915061177782611c6d565b602082019050919050565b600061178f601b83611968565b915061179a82611c96565b602082019050919050565b60006117b2601183611968565b91506117bd82611cbf565b602082019050919050565b6117d181611acc565b82525050565b60006020820190506117ec60008301846116b5565b92915050565b600060608201905061180760008301866116b5565b61181460208301856116b5565b61182160408301846117c8565b949350505050565b600060408201905061183e60008301856116b5565b61184b60208301846117c8565b9392505050565b600060208201905061186760008301846116c4565b92915050565b60006020820190508181036000830152611886816116d3565b9050919050565b600060208201905081810360008301526118a6816116f6565b9050919050565b600060208201905081810360008301526118c681611719565b9050919050565b600060208201905081810360008301526118e68161173c565b9050919050565b600060208201905081810360008301526119068161175f565b9050919050565b6000602082019050818103600083015261192681611782565b9050919050565b60006020820190508181036000830152611946816117a5565b9050919050565b600060208201905061196260008301846117c8565b92915050565b600082825260208201905092915050565b600061198482611acc565b915061198f83611acc565b9250827fffffffffffffffffffffffffffffffffffffffffffffffffffffffffffffffff038211156119c4576119c3611b1f565b5b828201905092915050565b60006119da82611acc565b91506119e583611acc565b9250826119f5576119f4611b4e565b5b828204905092915050565b6000611a0b82611acc565b9150611a1683611acc565b9250817fffffffffffffffffffffffffffffffffffffffffffffffffffffffffffffffff0483118215151615611a4f57611a4e611b1f565b5b828202905092915050565b6000611a6582611acc565b9150611a7083611acc565b925082821015611a8357611a82611b1f565b5b828203905092915050565b6000611a9982611aac565b9050919050565b60008115159050919050565b600073ffffffffffffffffffffffffffffffffffffffff82169050919050565b6000819050919050565b6000611ae182611acc565b91507fffffffffffffffffffffffffffffffffffffffffffffffffffffffffffffffff821415611b1457611b13611b1f565b5b600182019050919050565b7f4e487b7100000000000000000000000000000000000000000000000000000000600052601160045260246000fd5b7f4e487b7100000000000000000000000000000000000000000000000000000000600052601260045260246000fd5b7f4f776e61626c653a206e6577206f776e657220697320746865207a65726f206160008201527f6464726573730000000000000000000000000000000000000000000000000000602082015250565b7f596f7520686176656e2774207374616b656420757020746f207468697320616d60008201527f6f756e74206265666f72652e0000000000000000000000000000000000000000602082015250565b7f537570706c792076616c75652067726561746572207468616e207a65726f0000600082015250565b7f596f7520646f6e277420686176652073756666696369656e7420746f6b656e73600082015250565b7f4f776e61626c653a2063616c6c6572206973206e6f7420746865206f776e6572600082015250565b7f596f7520646f6e2774206861766520746f6b656e207374616b65640000000000600082015250565b7f4e6f7420656e6f75676820746f6b656e73000000000000000000000000000000600082015250565b611cf181611a8e565b8114611cfc57600080fd5b50565b611d0881611aa0565b8114611d1357600080fd5b50565b611d1f81611acc565b8114611d2a57600080fd5b5056fea26469706673582212205fd1c2a87539e0e4a65b2c9331e5a2094f35dcb58e67a7525c8912d3ac0ca64764736f6c63430008040033",
  "linkReferences": {},
  "deployedLinkReferences": {}
}